'use strict';
var expect = require('chai').expect;
var index = require('../dist/index.js');

const options = {
   // api_base: 'http://localhost:8082',
   // media_base: 'http://localhost:8082',
    // stream_base: 'http://localhost:8083',
}

describe('transaction', () => {
    it('Can handle a tx with no merkle proof found', async () => {
        var bf = index.instance(options);
        try {
            await bf.getTx('133fc9e55db4039d5b48df8aab31cd2366d98d64285fdc2aa53c17aa895b4763');
        } catch (err) {
            expect(err).to.eql({
                "code": -1,
                "error": "",
                "message": "",
                "success": false,
            });
        }
    })
    it('Can query transaction plain', async () => {
        var bf = index.instance(options);
        const result = await bf.getTx('633fc9e55db4039d5b48df8aab31cd2366d98d64285fdc2aa53c17aa895b476e');
        expect(result).to.eql({ hash:
            '633fc9e55db4039d5b48df8aab31cd2366d98d64285fdc2aa53c17aa895b476e',
           version: 1,
           inputs:
            [ { prevTxId:
                 '0cb1e3f21816a1336050e058d3a0691598f39b18b4073585519062e810fef28f',
                outputIndex: 0,
                sequenceNumber: 4294967295,
                script:
                 '473044022025cec117dc2828bd41015c6a82b196a27b7b6a221d83076242c10dc7918224ba0220078cf1305b913cc6762c76102bb6d3f2ece7a5a7486bc4a8776e41a546b6e1034121024f8d450e180c4d86e72beaa5491e77cf1a016f65c8ebd70b583e56196d32a0b3',
                scriptString:
                 '71 0x3044022025cec117dc2828bd41015c6a82b196a27b7b6a221d83076242c10dc7918224ba0220078cf1305b913cc6762c76102bb6d3f2ece7a5a7486bc4a8776e41a546b6e10341 33 0x024f8d450e180c4d86e72beaa5491e77cf1a016f65c8ebd70b583e56196d32a0b3' } ],
           outputs:
            [ { satoshis: 1034,
                script: '76a914f7850f091a798346d25e88380143c68e72c639ad88ac',
                outputIndex: 0,
                address: '1PZmJTy3ZkUGfHJxLczHnKwimRGnPXKNWH' },
              { satoshis: 1034,
                script: '76a91412cf816bc4606a46faa90bdc97fd8d1aad83d87988ac',
                outputIndex: 1,
                address: '12iTkC6ksHo3P4CLYLjc9VXpFasrNPwfND' },
              { satoshis: 0,
                script:
                 '006a2231394878696756345179427633744870515663554551797131707a5a56646f4175744de709596573210a0a48657265206172652074686520656e64706f696e74730a0a55706c6f61642066696c65202848544d4c20466f726d290a504f5354202f75706c6f61643f7461673d746167596f757255706c6f616473486572653132330a0a506572666f726d2061206d756c74692d7061727420666f726d2075706c6f6164207573696e672061207374616e6461726420666f726d2075706c6f61642e205573652074686520607461676020706172616d20617320612070736575646f2073657373696f6e206964656e74696669657220666f7220796f75722075706c6f61647320746f2062652061626c6520746f20717565727920737461747573206c617465722e0a0a4578616d706c6520666f726d3a0a3c666f726d20616374696f6e3d2268747470733a2f2f6170692e626974636f696e66696c65732e6f72672f75706c6f61643f7461673d7375706572556e697175657461674964343222206d6574686f643d22706f73742220656e63747970653d226d756c7469706172742f666f726d2d64617461223e0a3c696e70757420747970653d2266696c6522206e616d653d2266696c6522202f3e0a3c696e70757420747970653d227375626d697422202f3e0a3c2f666f726d3e0a0a526573706f6e736520626f64793a0a0a7b227061796d656e745f61646472657373223a2231335636683866337a457237444c6b723438386d394b415365654c7948715934554b222c227061796d656e745f7361746f73686973223a3131323537352c227374617475735f75726c223a222f7374617475732f34363963376434302d366531392d313165612d613363652d373731383132666230363536222c226c6f636174696f6e223a2268747470733a2f2f626974636f696e66696c65736d61747465722e73332e75732d776573742d322e616d617a6f6e6177732e636f6d2f626974636f696e2e70646635353561393932302d366531392d313165612d616137622d3931303235353537383263662e706466227d0a0a4765742055706c6f6164205374617475732042617463680a474554202f7374617475732f3a7461674e616d650a52657472696576652074686520737461747573206f66207468652075706c6f6164732067726f757065642062792060746167602e2055706c6f6164732077696c6c2062652073746f726564206f6e20426974636f696e207768656e2061207061796d656e7420697320726563656976656420617420746865206164766572746973656420607061796f75745f616464726573736020616e642074686520607061796d656e745f736174735f6e65656465646020616d6f756e742e0a0a4854545020526571756573743a0a4745542068747470733a2f2f6170692e626974636f696e66696c65732e6f72672f7374617475732f34326261366663302d346631612d313165612d396632642d3262613264646466613137380a0a2f2f2052657475726e730a7b2273756363657373223a747275652c22726573756c74223a5b7b226964223a313634362c2273657373696f6e5f746167223a2234363963376434302d366531392d313165612d613363652d373731383132666230363536222c227061796d656e745f61646472657373223a2231335636683866337a457237444c6b723438386d394b415365654c7948715934554b222c2266696c656e616d65223a22626974636f696e2e70646635353561393932302d366531392d313165612d616137622d3931303235353537383263662e706466222c2266697273745f62726f6164636173745f74696d65223a6e756c6c2c226c6173745f62726f6164636173745f74696d65223a6e756c6c2c227061796d656e745f736174735f6e6565646564223a3131323537352c2274786964223a6e756c6c2c2266696c6575726c223a2268747470733a2f2f626974636f696e66696c65736d61747465722e73332e75732d776573742d322e616d617a6f6e6177732e636f6d2f626974636f696e2e70646635353561393932302d366531392d313165612d616137622d3931303235353537383263662e706466222c2266696c6573697a65223a3138343239322c22626c6f636b68617368223a6e756c6c2c22637265617465645f74696d65223a313538353038363536387d5d7d0a0a4765742066696c650a4745542068747470733a2f2f6d656469612e626974636f696e66696c65732e6f72672f3a747869645b2e6f75742e3a696e6465785d0a526574726965766520612066696c652066726f6d2074686520436f6e74656e742044656c6976657279204e6574776f726b202843444e292e20546865205b2e6f75742e3a696e6465785d206973206f7074696f6e616c2062757420616c6c6f777320796f7520746f2073656c656374207370656369666963206f757470757420696e6465782e202842792064656661756c74206974207363616e7320616c6c206f75747075747320616e64207069636b7320746865206669727374290a0a4854545020526571756573743a0a4745542068747470733a2f2f6d656469612e626974636f696e66696c65732e6f72672f303565333438343439313432343965613963363238376238383237303535336333396565383134333138613033343665336663356633323164663532323139610a0a2f2f2052657475726e732074686520726177207061796c6f61642066696c650a0a476574207472616e73616374696f6e206a736f6e0a4745542068747470733a2f2f6d656469612e626974636f696e66696c65732e6f72672f74782f3a747869640a526574726965766520746865207472616e73616374696f6e206a736f6e20726570726573656e746174696f6e206f66207468652066696c650a0a4854545020526571756573743a0a4745542068747470733a2f2f6d656469612e626974636f696e66696c65732e6f72672f74782f303565333438343439313432343965613963363238376238383237303535336333396565383134333138613033343665336663356633323164663532323139610a0a2f2f2052657475726e7320746865207472616e73616374696f6e206a736f6e0a0a0a0a476574207472616e73616374696f6e20726177206865780a4745542068747470733a2f2f6d656469612e626974636f696e66696c65732e6f72672f74782f3a747869642f7261770a526574726965766520746865207472616e73616374696f6e206865782072617720726570726573656e746174696f6e206f66207468652066696c650a0a4854545020526571756573743a0a4745542068747470733a2f2f6d656469612e626974636f696e66696c65732e6f72672f74782f303565333438343439313432343965613963363238376238383237303535336333396565383134333138613033343665336663356633323164663532323139612f7261770a0a2f2f2052657475726e7320746865207472616e73616374696f6e20726177206865780a0a0a0a0a1c746578742f6d61726b646f776e3b20636861727365743d7574662d38055554462d3839626974636f696e66696c65736170692e6d6461326564396236302d366531392d313165612d616137622d3931303235353537383263662e6d64',
                outputIndex: 2 } ],
           nLockTime: 0 });
    });

    it('Can query transaction raw only', async () => {
        var bf = index.instance(options);
        const result = await bf.getTx('633fc9e55db4039d5b48df8aab31cd2366d98d64285fdc2aa53c17aa895b476e', null, { raw: true });
        expect(result).to.eql('01000000018ff2fe10e8629051853507b4189bf3981569a0d358e0506033a11618f2e3b10c000000006a473044022025cec117dc2828bd41015c6a82b196a27b7b6a221d83076242c10dc7918224ba0220078cf1305b913cc6762c76102bb6d3f2ece7a5a7486bc4a8776e41a546b6e1034121024f8d450e180c4d86e72beaa5491e77cf1a016f65c8ebd70b583e56196d32a0b3ffffffff030a040000000000001976a914f7850f091a798346d25e88380143c68e72c639ad88ac0a040000000000001976a91412cf816bc4606a46faa90bdc97fd8d1aad83d87988ac0000000000000000fd6c0a006a2231394878696756345179427633744870515663554551797131707a5a56646f4175744de709596573210a0a48657265206172652074686520656e64706f696e74730a0a55706c6f61642066696c65202848544d4c20466f726d290a504f5354202f75706c6f61643f7461673d746167596f757255706c6f616473486572653132330a0a506572666f726d2061206d756c74692d7061727420666f726d2075706c6f6164207573696e672061207374616e6461726420666f726d2075706c6f61642e205573652074686520607461676020706172616d20617320612070736575646f2073657373696f6e206964656e74696669657220666f7220796f75722075706c6f61647320746f2062652061626c6520746f20717565727920737461747573206c617465722e0a0a4578616d706c6520666f726d3a0a3c666f726d20616374696f6e3d2268747470733a2f2f6170692e626974636f696e66696c65732e6f72672f75706c6f61643f7461673d7375706572556e697175657461674964343222206d6574686f643d22706f73742220656e63747970653d226d756c7469706172742f666f726d2d64617461223e0a3c696e70757420747970653d2266696c6522206e616d653d2266696c6522202f3e0a3c696e70757420747970653d227375626d697422202f3e0a3c2f666f726d3e0a0a526573706f6e736520626f64793a0a0a7b227061796d656e745f61646472657373223a2231335636683866337a457237444c6b723438386d394b415365654c7948715934554b222c227061796d656e745f7361746f73686973223a3131323537352c227374617475735f75726c223a222f7374617475732f34363963376434302d366531392d313165612d613363652d373731383132666230363536222c226c6f636174696f6e223a2268747470733a2f2f626974636f696e66696c65736d61747465722e73332e75732d776573742d322e616d617a6f6e6177732e636f6d2f626974636f696e2e70646635353561393932302d366531392d313165612d616137622d3931303235353537383263662e706466227d0a0a4765742055706c6f6164205374617475732042617463680a474554202f7374617475732f3a7461674e616d650a52657472696576652074686520737461747573206f66207468652075706c6f6164732067726f757065642062792060746167602e2055706c6f6164732077696c6c2062652073746f726564206f6e20426974636f696e207768656e2061207061796d656e7420697320726563656976656420617420746865206164766572746973656420607061796f75745f616464726573736020616e642074686520607061796d656e745f736174735f6e65656465646020616d6f756e742e0a0a4854545020526571756573743a0a4745542068747470733a2f2f6170692e626974636f696e66696c65732e6f72672f7374617475732f34326261366663302d346631612d313165612d396632642d3262613264646466613137380a0a2f2f2052657475726e730a7b2273756363657373223a747275652c22726573756c74223a5b7b226964223a313634362c2273657373696f6e5f746167223a2234363963376434302d366531392d313165612d613363652d373731383132666230363536222c227061796d656e745f61646472657373223a2231335636683866337a457237444c6b723438386d394b415365654c7948715934554b222c2266696c656e616d65223a22626974636f696e2e70646635353561393932302d366531392d313165612d616137622d3931303235353537383263662e706466222c2266697273745f62726f6164636173745f74696d65223a6e756c6c2c226c6173745f62726f6164636173745f74696d65223a6e756c6c2c227061796d656e745f736174735f6e6565646564223a3131323537352c2274786964223a6e756c6c2c2266696c6575726c223a2268747470733a2f2f626974636f696e66696c65736d61747465722e73332e75732d776573742d322e616d617a6f6e6177732e636f6d2f626974636f696e2e70646635353561393932302d366531392d313165612d616137622d3931303235353537383263662e706466222c2266696c6573697a65223a3138343239322c22626c6f636b68617368223a6e756c6c2c22637265617465645f74696d65223a313538353038363536387d5d7d0a0a4765742066696c650a4745542068747470733a2f2f6d656469612e626974636f696e66696c65732e6f72672f3a747869645b2e6f75742e3a696e6465785d0a526574726965766520612066696c652066726f6d2074686520436f6e74656e742044656c6976657279204e6574776f726b202843444e292e20546865205b2e6f75742e3a696e6465785d206973206f7074696f6e616c2062757420616c6c6f777320796f7520746f2073656c656374207370656369666963206f757470757420696e6465782e202842792064656661756c74206974207363616e7320616c6c206f75747075747320616e64207069636b7320746865206669727374290a0a4854545020526571756573743a0a4745542068747470733a2f2f6d656469612e626974636f696e66696c65732e6f72672f303565333438343439313432343965613963363238376238383237303535336333396565383134333138613033343665336663356633323164663532323139610a0a2f2f2052657475726e732074686520726177207061796c6f61642066696c650a0a476574207472616e73616374696f6e206a736f6e0a4745542068747470733a2f2f6d656469612e626974636f696e66696c65732e6f72672f74782f3a747869640a526574726965766520746865207472616e73616374696f6e206a736f6e20726570726573656e746174696f6e206f66207468652066696c650a0a4854545020526571756573743a0a4745542068747470733a2f2f6d656469612e626974636f696e66696c65732e6f72672f74782f303565333438343439313432343965613963363238376238383237303535336333396565383134333138613033343665336663356633323164663532323139610a0a2f2f2052657475726e7320746865207472616e73616374696f6e206a736f6e0a0a0a0a476574207472616e73616374696f6e20726177206865780a4745542068747470733a2f2f6d656469612e626974636f696e66696c65732e6f72672f74782f3a747869642f7261770a526574726965766520746865207472616e73616374696f6e206865782072617720726570726573656e746174696f6e206f66207468652066696c650a0a4854545020526571756573743a0a4745542068747470733a2f2f6d656469612e626974636f696e66696c65732e6f72672f74782f303565333438343439313432343965613963363238376238383237303535336333396565383134333138613033343665336663356633323164663532323139612f7261770a0a2f2f2052657475726e7320746865207472616e73616374696f6e20726177206865780a0a0a0a0a1c746578742f6d61726b646f776e3b20636861727365743d7574662d38055554462d3839626974636f696e66696c65736170692e6d6461326564396236302d366531392d313165612d616137622d3931303235353537383263662e6d6400000000');
    });

    it('Can query transaction raw and includeBlock', async () => {
        var bf = index.instance(options);
        const result = await bf.getTx('633fc9e55db4039d5b48df8aab31cd2366d98d64285fdc2aa53c17aa895b476e', null, { includeBlock: true, raw: true });
        expect(result).to.eql({ tx:
            '01000000018ff2fe10e8629051853507b4189bf3981569a0d358e0506033a11618f2e3b10c000000006a473044022025cec117dc2828bd41015c6a82b196a27b7b6a221d83076242c10dc7918224ba0220078cf1305b913cc6762c76102bb6d3f2ece7a5a7486bc4a8776e41a546b6e1034121024f8d450e180c4d86e72beaa5491e77cf1a016f65c8ebd70b583e56196d32a0b3ffffffff030a040000000000001976a914f7850f091a798346d25e88380143c68e72c639ad88ac0a040000000000001976a91412cf816bc4606a46faa90bdc97fd8d1aad83d87988ac0000000000000000fd6c0a006a2231394878696756345179427633744870515663554551797131707a5a56646f4175744de709596573210a0a48657265206172652074686520656e64706f696e74730a0a55706c6f61642066696c65202848544d4c20466f726d290a504f5354202f75706c6f61643f7461673d746167596f757255706c6f616473486572653132330a0a506572666f726d2061206d756c74692d7061727420666f726d2075706c6f6164207573696e672061207374616e6461726420666f726d2075706c6f61642e205573652074686520607461676020706172616d20617320612070736575646f2073657373696f6e206964656e74696669657220666f7220796f75722075706c6f61647320746f2062652061626c6520746f20717565727920737461747573206c617465722e0a0a4578616d706c6520666f726d3a0a3c666f726d20616374696f6e3d2268747470733a2f2f6170692e626974636f696e66696c65732e6f72672f75706c6f61643f7461673d7375706572556e697175657461674964343222206d6574686f643d22706f73742220656e63747970653d226d756c7469706172742f666f726d2d64617461223e0a3c696e70757420747970653d2266696c6522206e616d653d2266696c6522202f3e0a3c696e70757420747970653d227375626d697422202f3e0a3c2f666f726d3e0a0a526573706f6e736520626f64793a0a0a7b227061796d656e745f61646472657373223a2231335636683866337a457237444c6b723438386d394b415365654c7948715934554b222c227061796d656e745f7361746f73686973223a3131323537352c227374617475735f75726c223a222f7374617475732f34363963376434302d366531392d313165612d613363652d373731383132666230363536222c226c6f636174696f6e223a2268747470733a2f2f626974636f696e66696c65736d61747465722e73332e75732d776573742d322e616d617a6f6e6177732e636f6d2f626974636f696e2e70646635353561393932302d366531392d313165612d616137622d3931303235353537383263662e706466227d0a0a4765742055706c6f6164205374617475732042617463680a474554202f7374617475732f3a7461674e616d650a52657472696576652074686520737461747573206f66207468652075706c6f6164732067726f757065642062792060746167602e2055706c6f6164732077696c6c2062652073746f726564206f6e20426974636f696e207768656e2061207061796d656e7420697320726563656976656420617420746865206164766572746973656420607061796f75745f616464726573736020616e642074686520607061796d656e745f736174735f6e65656465646020616d6f756e742e0a0a4854545020526571756573743a0a4745542068747470733a2f2f6170692e626974636f696e66696c65732e6f72672f7374617475732f34326261366663302d346631612d313165612d396632642d3262613264646466613137380a0a2f2f2052657475726e730a7b2273756363657373223a747275652c22726573756c74223a5b7b226964223a313634362c2273657373696f6e5f746167223a2234363963376434302d366531392d313165612d613363652d373731383132666230363536222c227061796d656e745f61646472657373223a2231335636683866337a457237444c6b723438386d394b415365654c7948715934554b222c2266696c656e616d65223a22626974636f696e2e70646635353561393932302d366531392d313165612d616137622d3931303235353537383263662e706466222c2266697273745f62726f6164636173745f74696d65223a6e756c6c2c226c6173745f62726f6164636173745f74696d65223a6e756c6c2c227061796d656e745f736174735f6e6565646564223a3131323537352c2274786964223a6e756c6c2c2266696c6575726c223a2268747470733a2f2f626974636f696e66696c65736d61747465722e73332e75732d776573742d322e616d617a6f6e6177732e636f6d2f626974636f696e2e70646635353561393932302d366531392d313165612d616137622d3931303235353537383263662e706466222c2266696c6573697a65223a3138343239322c22626c6f636b68617368223a6e756c6c2c22637265617465645f74696d65223a313538353038363536387d5d7d0a0a4765742066696c650a4745542068747470733a2f2f6d656469612e626974636f696e66696c65732e6f72672f3a747869645b2e6f75742e3a696e6465785d0a526574726965766520612066696c652066726f6d2074686520436f6e74656e742044656c6976657279204e6574776f726b202843444e292e20546865205b2e6f75742e3a696e6465785d206973206f7074696f6e616c2062757420616c6c6f777320796f7520746f2073656c656374207370656369666963206f757470757420696e6465782e202842792064656661756c74206974207363616e7320616c6c206f75747075747320616e64207069636b7320746865206669727374290a0a4854545020526571756573743a0a4745542068747470733a2f2f6d656469612e626974636f696e66696c65732e6f72672f303565333438343439313432343965613963363238376238383237303535336333396565383134333138613033343665336663356633323164663532323139610a0a2f2f2052657475726e732074686520726177207061796c6f61642066696c650a0a476574207472616e73616374696f6e206a736f6e0a4745542068747470733a2f2f6d656469612e626974636f696e66696c65732e6f72672f74782f3a747869640a526574726965766520746865207472616e73616374696f6e206a736f6e20726570726573656e746174696f6e206f66207468652066696c650a0a4854545020526571756573743a0a4745542068747470733a2f2f6d656469612e626974636f696e66696c65732e6f72672f74782f303565333438343439313432343965613963363238376238383237303535336333396565383134333138613033343665336663356633323164663532323139610a0a2f2f2052657475726e7320746865207472616e73616374696f6e206a736f6e0a0a0a0a476574207472616e73616374696f6e20726177206865780a4745542068747470733a2f2f6d656469612e626974636f696e66696c65732e6f72672f74782f3a747869642f7261770a526574726965766520746865207472616e73616374696f6e206865782072617720726570726573656e746174696f6e206f66207468652066696c650a0a4854545020526571756573743a0a4745542068747470733a2f2f6d656469612e626974636f696e66696c65732e6f72672f74782f303565333438343439313432343965613963363238376238383237303535336333396565383134333138613033343665336663356633323164663532323139612f7261770a0a2f2f2052657475726e7320746865207472616e73616374696f6e20726177206865780a0a0a0a0a1c746578742f6d61726b646f776e3b20636861727365743d7574662d38055554462d3839626974636f696e66696c65736170692e6d6461326564396236302d366531392d313165612d616137622d3931303235353537383263662e6d6400000000',
           block:
            '00e0ff2f096e606778482875cf92729705babe38c5b95d4f64c462020000000000000000468530288c741068b04a9a0e4781177d3cb027b1a27fbf00110372f72eb7b5b3c5827a5ee18002188700ac7ff80e00000ddc354e48d853115252d7a335b6ee1bbab6a48d1b0c8a5bb6883534e280f89e2d9a7bf479539b5b54cb7fe1685da7b221ba2be5b1a6c56afa8ff4dd0589f6c4f08475e9bdbf61a0cf4dadb7bab5e1394c8915bea1f7b7c2bb77b5da998b0337e29ec618cccb695d12db0cc1e8333505dde114a45f68b1bebdfb24ca811dc585d3b212587785c188d31efa131b7907def98bd906da38e7932277ce4a14cd67a6cd1b122a236404667c363c74f61b27a6fe6fcfc6e6659b2cdb586b8300da695a856e475b89aa173ca52adc5f28648dd96623cd31ab8adf485b9d03b45de5c93f63ed872554fd217fab7f799c879b9b1610384d7f3e528c5c25d9b305e0e63c242f633e5df804321bd23cf99591fd99f0861c3432b83b4d43b2c5d4fc95dc58e559c5d11b83695bed3b8a697d7e880ef8003385dd8f20c44eaaa5820c5fbef4b9ed060ea37dec8ce3efddafec62d95c5985741d0b4dbca1a525b09e1a3c834bb23262dbb6230742d8748f7edc8de91b18fc6f4295612c8f337bfc6ed1037358bf65e152f84db22309d316491c5bf344ff907c6a0e5af1c003f2fa7d4a8917b39f8804b5fa0500' });
    });
    it('Can query transaction not raw and includeBlock and inputInfo', async () => {
        var bf = index.instance(options);
        const result = await bf.getTx('633fc9e55db4039d5b48df8aab31cd2366d98d64285fdc2aa53c17aa895b476e', null, { includeBlock: true, raw: false, inputInfo: true });
        expect(result).to.eql({
            "tx":{
               "hash":"633fc9e55db4039d5b48df8aab31cd2366d98d64285fdc2aa53c17aa895b476e",
               "version":1,
               "inputs":[
                  {
                     "prevTxId":"0cb1e3f21816a1336050e058d3a0691598f39b18b4073585519062e810fef28f",
                     "outputIndex":0,
                     "sequenceNumber":4294967295,
                     "script":"473044022025cec117dc2828bd41015c6a82b196a27b7b6a221d83076242c10dc7918224ba0220078cf1305b913cc6762c76102bb6d3f2ece7a5a7486bc4a8776e41a546b6e1034121024f8d450e180c4d86e72beaa5491e77cf1a016f65c8ebd70b583e56196d32a0b3",
                     "scriptString":"71 0x3044022025cec117dc2828bd41015c6a82b196a27b7b6a221d83076242c10dc7918224ba0220078cf1305b913cc6762c76102bb6d3f2ece7a5a7486bc4a8776e41a546b6e10341 33 0x024f8d450e180c4d86e72beaa5491e77cf1a016f65c8ebd70b583e56196d32a0b3",
                     "satoshis":3521,
                     "address":"1KPnn47RN4W9Jw86525euyvaBykjVL7464",
                     "lockingScript":"76a914c9c1a0b7cd2495a59ab3aafd1cdaa92075a768da88ac"
                  }
               ],
               "outputs":[
                  {
                     "satoshis":1034,
                     "script":"76a914f7850f091a798346d25e88380143c68e72c639ad88ac",
                     "outputIndex":0,
                     "address":"1PZmJTy3ZkUGfHJxLczHnKwimRGnPXKNWH"
                  },
                  {
                     "satoshis":1034,
                     "script":"76a91412cf816bc4606a46faa90bdc97fd8d1aad83d87988ac",
                     "outputIndex":1,
                     "address":"12iTkC6ksHo3P4CLYLjc9VXpFasrNPwfND"
                  },
                  {
                     "satoshis":0,
                     "script":"006a2231394878696756345179427633744870515663554551797131707a5a56646f4175744de709596573210a0a48657265206172652074686520656e64706f696e74730a0a55706c6f61642066696c65202848544d4c20466f726d290a504f5354202f75706c6f61643f7461673d746167596f757255706c6f616473486572653132330a0a506572666f726d2061206d756c74692d7061727420666f726d2075706c6f6164207573696e672061207374616e6461726420666f726d2075706c6f61642e205573652074686520607461676020706172616d20617320612070736575646f2073657373696f6e206964656e74696669657220666f7220796f75722075706c6f61647320746f2062652061626c6520746f20717565727920737461747573206c617465722e0a0a4578616d706c6520666f726d3a0a3c666f726d20616374696f6e3d2268747470733a2f2f6170692e626974636f696e66696c65732e6f72672f75706c6f61643f7461673d7375706572556e697175657461674964343222206d6574686f643d22706f73742220656e63747970653d226d756c7469706172742f666f726d2d64617461223e0a3c696e70757420747970653d2266696c6522206e616d653d2266696c6522202f3e0a3c696e70757420747970653d227375626d697422202f3e0a3c2f666f726d3e0a0a526573706f6e736520626f64793a0a0a7b227061796d656e745f61646472657373223a2231335636683866337a457237444c6b723438386d394b415365654c7948715934554b222c227061796d656e745f7361746f73686973223a3131323537352c227374617475735f75726c223a222f7374617475732f34363963376434302d366531392d313165612d613363652d373731383132666230363536222c226c6f636174696f6e223a2268747470733a2f2f626974636f696e66696c65736d61747465722e73332e75732d776573742d322e616d617a6f6e6177732e636f6d2f626974636f696e2e70646635353561393932302d366531392d313165612d616137622d3931303235353537383263662e706466227d0a0a4765742055706c6f6164205374617475732042617463680a474554202f7374617475732f3a7461674e616d650a52657472696576652074686520737461747573206f66207468652075706c6f6164732067726f757065642062792060746167602e2055706c6f6164732077696c6c2062652073746f726564206f6e20426974636f696e207768656e2061207061796d656e7420697320726563656976656420617420746865206164766572746973656420607061796f75745f616464726573736020616e642074686520607061796d656e745f736174735f6e65656465646020616d6f756e742e0a0a4854545020526571756573743a0a4745542068747470733a2f2f6170692e626974636f696e66696c65732e6f72672f7374617475732f34326261366663302d346631612d313165612d396632642d3262613264646466613137380a0a2f2f2052657475726e730a7b2273756363657373223a747275652c22726573756c74223a5b7b226964223a313634362c2273657373696f6e5f746167223a2234363963376434302d366531392d313165612d613363652d373731383132666230363536222c227061796d656e745f61646472657373223a2231335636683866337a457237444c6b723438386d394b415365654c7948715934554b222c2266696c656e616d65223a22626974636f696e2e70646635353561393932302d366531392d313165612d616137622d3931303235353537383263662e706466222c2266697273745f62726f6164636173745f74696d65223a6e756c6c2c226c6173745f62726f6164636173745f74696d65223a6e756c6c2c227061796d656e745f736174735f6e6565646564223a3131323537352c2274786964223a6e756c6c2c2266696c6575726c223a2268747470733a2f2f626974636f696e66696c65736d61747465722e73332e75732d776573742d322e616d617a6f6e6177732e636f6d2f626974636f696e2e70646635353561393932302d366531392d313165612d616137622d3931303235353537383263662e706466222c2266696c6573697a65223a3138343239322c22626c6f636b68617368223a6e756c6c2c22637265617465645f74696d65223a313538353038363536387d5d7d0a0a4765742066696c650a4745542068747470733a2f2f6d656469612e626974636f696e66696c65732e6f72672f3a747869645b2e6f75742e3a696e6465785d0a526574726965766520612066696c652066726f6d2074686520436f6e74656e742044656c6976657279204e6574776f726b202843444e292e20546865205b2e6f75742e3a696e6465785d206973206f7074696f6e616c2062757420616c6c6f777320796f7520746f2073656c656374207370656369666963206f757470757420696e6465782e202842792064656661756c74206974207363616e7320616c6c206f75747075747320616e64207069636b7320746865206669727374290a0a4854545020526571756573743a0a4745542068747470733a2f2f6d656469612e626974636f696e66696c65732e6f72672f303565333438343439313432343965613963363238376238383237303535336333396565383134333138613033343665336663356633323164663532323139610a0a2f2f2052657475726e732074686520726177207061796c6f61642066696c650a0a476574207472616e73616374696f6e206a736f6e0a4745542068747470733a2f2f6d656469612e626974636f696e66696c65732e6f72672f74782f3a747869640a526574726965766520746865207472616e73616374696f6e206a736f6e20726570726573656e746174696f6e206f66207468652066696c650a0a4854545020526571756573743a0a4745542068747470733a2f2f6d656469612e626974636f696e66696c65732e6f72672f74782f303565333438343439313432343965613963363238376238383237303535336333396565383134333138613033343665336663356633323164663532323139610a0a2f2f2052657475726e7320746865207472616e73616374696f6e206a736f6e0a0a0a0a476574207472616e73616374696f6e20726177206865780a4745542068747470733a2f2f6d656469612e626974636f696e66696c65732e6f72672f74782f3a747869642f7261770a526574726965766520746865207472616e73616374696f6e206865782072617720726570726573656e746174696f6e206f66207468652066696c650a0a4854545020526571756573743a0a4745542068747470733a2f2f6d656469612e626974636f696e66696c65732e6f72672f74782f303565333438343439313432343965613963363238376238383237303535336333396565383134333138613033343665336663356633323164663532323139612f7261770a0a2f2f2052657475726e7320746865207472616e73616374696f6e20726177206865780a0a0a0a0a1c746578742f6d61726b646f776e3b20636861727365743d7574662d38055554462d3839626974636f696e66696c65736170692e6d6461326564396236302d366531392d313165612d616137622d3931303235353537383263662e6d64",
                     "outputIndex":2
                  }
               ],
               "nLockTime":0
            },
            "block":{
               "header":{
                  "hash":"00000000000000000058a72020a7e2516fec66c68aa69af7705cf1bf7999d52a",
                  "version":805298176,
                  "prevHash":"00000000000000000262c4644f5db9c538beba05977292cf7528487867606e09",
                  "merkleRoot":"b3b5b72ef772031100bf7fa2b127b03c7d1781470e9a4ab06810748c28308546",
                  "time":1585087173,
                  "bits":402817249,
                  "nonce":2141978759
               },
               "numTransactions":3832,
               "hashes":[
                  "dc354e48d853115252d7a335b6ee1bbab6a48d1b0c8a5bb6883534e280f89e2d",
                  "9a7bf479539b5b54cb7fe1685da7b221ba2be5b1a6c56afa8ff4dd0589f6c4f0",
                  "8475e9bdbf61a0cf4dadb7bab5e1394c8915bea1f7b7c2bb77b5da998b0337e2",
                  "9ec618cccb695d12db0cc1e8333505dde114a45f68b1bebdfb24ca811dc585d3",
                  "b212587785c188d31efa131b7907def98bd906da38e7932277ce4a14cd67a6cd",
                  "1b122a236404667c363c74f61b27a6fe6fcfc6e6659b2cdb586b8300da695a85",
                  "6e475b89aa173ca52adc5f28648dd96623cd31ab8adf485b9d03b45de5c93f63",
                  "ed872554fd217fab7f799c879b9b1610384d7f3e528c5c25d9b305e0e63c242f",
                  "633e5df804321bd23cf99591fd99f0861c3432b83b4d43b2c5d4fc95dc58e559",
                  "c5d11b83695bed3b8a697d7e880ef8003385dd8f20c44eaaa5820c5fbef4b9ed",
                  "060ea37dec8ce3efddafec62d95c5985741d0b4dbca1a525b09e1a3c834bb232",
                  "62dbb6230742d8748f7edc8de91b18fc6f4295612c8f337bfc6ed1037358bf65",
                  "e152f84db22309d316491c5bf344ff907c6a0e5af1c003f2fa7d4a8917b39f88"
               ],
               "flags":[
                  181,
                  250,
                  5,
                  0
               ]
            }
         });
    });
});

